{
  "_format": "hh-sol-artifact-1",
  "contractName": "Kickstarter",
  "sourceName": "src/contracts/Kickstarter.sol",
  "abi": [
    {
      "inputs": [
        {
          "internalType": "uint256",
          "name": "_projectTax",
          "type": "uint256"
        }
      ],
      "stateMutability": "nonpayable",
      "type": "constructor"
    },
    {
      "inputs": [],
      "name": "Kickstarter__NotOwner",
      "type": "error"
    },
    {
      "inputs": [],
      "name": "Kickstarter__TransferFailed",
      "type": "error"
    },
    {
      "anonymous": false,
      "inputs": [
        {
          "indexed": false,
          "internalType": "uint256",
          "name": "id",
          "type": "uint256"
        },
        {
          "indexed": false,
          "internalType": "string",
          "name": "actionType",
          "type": "string"
        },
        {
          "indexed": true,
          "internalType": "address",
          "name": "executor",
          "type": "address"
        },
        {
          "indexed": false,
          "internalType": "uint256",
          "name": "timestamp",
          "type": "uint256"
        }
      ],
      "name": "Action",
      "type": "event"
    },
    {
      "inputs": [
        {
          "internalType": "uint256",
          "name": "id",
          "type": "uint256"
        }
      ],
      "name": "backProject",
      "outputs": [
        {
          "internalType": "bool",
          "name": "",
          "type": "bool"
        }
      ],
      "stateMutability": "payable",
      "type": "function"
    },
    {
      "inputs": [],
      "name": "balance",
      "outputs": [
        {
          "internalType": "uint256",
          "name": "",
          "type": "uint256"
        }
      ],
      "stateMutability": "view",
      "type": "function"
    },
    {
      "inputs": [
        {
          "internalType": "uint256",
          "name": "_taxPct",
          "type": "uint256"
        }
      ],
      "name": "changeTax",
      "outputs": [],
      "stateMutability": "nonpayable",
      "type": "function"
    },
    {
      "inputs": [
        {
          "internalType": "string",
          "name": "title",
          "type": "string"
        },
        {
          "internalType": "string",
          "name": "description",
          "type": "string"
        },
        {
          "internalType": "string",
          "name": "imageURL",
          "type": "string"
        },
        {
          "internalType": "uint256",
          "name": "cost",
          "type": "uint256"
        },
        {
          "internalType": "uint256",
          "name": "expiresAt",
          "type": "uint256"
        }
      ],
      "name": "createProject",
      "outputs": [
        {
          "internalType": "bool",
          "name": "",
          "type": "bool"
        }
      ],
      "stateMutability": "nonpayable",
      "type": "function"
    },
    {
      "inputs": [
        {
          "internalType": "uint256",
          "name": "id",
          "type": "uint256"
        }
      ],
      "name": "deleteProject",
      "outputs": [
        {
          "internalType": "bool",
          "name": "",
          "type": "bool"
        }
      ],
      "stateMutability": "nonpayable",
      "type": "function"
    },
    {
      "inputs": [
        {
          "internalType": "uint256",
          "name": "id",
          "type": "uint256"
        }
      ],
      "name": "getBackers",
      "outputs": [
        {
          "components": [
            {
              "internalType": "address",
              "name": "owner",
              "type": "address"
            },
            {
              "internalType": "uint256",
              "name": "contribution",
              "type": "uint256"
            },
            {
              "internalType": "uint256",
              "name": "timestamp",
              "type": "uint256"
            },
            {
              "internalType": "bool",
              "name": "refunded",
              "type": "bool"
            }
          ],
          "internalType": "struct Kickstarter.backerStruct[]",
          "name": "",
          "type": "tuple[]"
        }
      ],
      "stateMutability": "view",
      "type": "function"
    },
    {
      "inputs": [
        {
          "internalType": "uint256",
          "name": "id",
          "type": "uint256"
        }
      ],
      "name": "getProject",
      "outputs": [
        {
          "components": [
            {
              "internalType": "uint256",
              "name": "id",
              "type": "uint256"
            },
            {
              "internalType": "address",
              "name": "owner",
              "type": "address"
            },
            {
              "internalType": "string",
              "name": "title",
              "type": "string"
            },
            {
              "internalType": "string",
              "name": "description",
              "type": "string"
            },
            {
              "internalType": "string",
              "name": "imageURL",
              "type": "string"
            },
            {
              "internalType": "uint256",
              "name": "cost",
              "type": "uint256"
            },
            {
              "internalType": "uint256",
              "name": "raised",
              "type": "uint256"
            },
            {
              "internalType": "uint256",
              "name": "timestamp",
              "type": "uint256"
            },
            {
              "internalType": "uint256",
              "name": "expiresAt",
              "type": "uint256"
            },
            {
              "internalType": "uint256",
              "name": "backers",
              "type": "uint256"
            },
            {
              "internalType": "enum Kickstarter.statusEnum",
              "name": "status",
              "type": "uint8"
            }
          ],
          "internalType": "struct Kickstarter.projectStruct",
          "name": "",
          "type": "tuple"
        }
      ],
      "stateMutability": "view",
      "type": "function"
    },
    {
      "inputs": [],
      "name": "getProjects",
      "outputs": [
        {
          "components": [
            {
              "internalType": "uint256",
              "name": "id",
              "type": "uint256"
            },
            {
              "internalType": "address",
              "name": "owner",
              "type": "address"
            },
            {
              "internalType": "string",
              "name": "title",
              "type": "string"
            },
            {
              "internalType": "string",
              "name": "description",
              "type": "string"
            },
            {
              "internalType": "string",
              "name": "imageURL",
              "type": "string"
            },
            {
              "internalType": "uint256",
              "name": "cost",
              "type": "uint256"
            },
            {
              "internalType": "uint256",
              "name": "raised",
              "type": "uint256"
            },
            {
              "internalType": "uint256",
              "name": "timestamp",
              "type": "uint256"
            },
            {
              "internalType": "uint256",
              "name": "expiresAt",
              "type": "uint256"
            },
            {
              "internalType": "uint256",
              "name": "backers",
              "type": "uint256"
            },
            {
              "internalType": "enum Kickstarter.statusEnum",
              "name": "status",
              "type": "uint8"
            }
          ],
          "internalType": "struct Kickstarter.projectStruct[]",
          "name": "",
          "type": "tuple[]"
        }
      ],
      "stateMutability": "view",
      "type": "function"
    },
    {
      "inputs": [
        {
          "internalType": "uint256",
          "name": "id",
          "type": "uint256"
        }
      ],
      "name": "payOutProject",
      "outputs": [
        {
          "internalType": "bool",
          "name": "",
          "type": "bool"
        }
      ],
      "stateMutability": "nonpayable",
      "type": "function"
    },
    {
      "inputs": [],
      "name": "projectCount",
      "outputs": [
        {
          "internalType": "uint256",
          "name": "",
          "type": "uint256"
        }
      ],
      "stateMutability": "view",
      "type": "function"
    },
    {
      "inputs": [
        {
          "internalType": "uint256",
          "name": "",
          "type": "uint256"
        }
      ],
      "name": "projectExist",
      "outputs": [
        {
          "internalType": "bool",
          "name": "",
          "type": "bool"
        }
      ],
      "stateMutability": "view",
      "type": "function"
    },
    {
      "inputs": [],
      "name": "projectTax",
      "outputs": [
        {
          "internalType": "uint256",
          "name": "",
          "type": "uint256"
        }
      ],
      "stateMutability": "view",
      "type": "function"
    },
    {
      "inputs": [
        {
          "internalType": "uint256",
          "name": "id",
          "type": "uint256"
        }
      ],
      "name": "requestRefund",
      "outputs": [
        {
          "internalType": "bool",
          "name": "",
          "type": "bool"
        }
      ],
      "stateMutability": "nonpayable",
      "type": "function"
    },
    {
      "inputs": [],
      "name": "stats",
      "outputs": [
        {
          "internalType": "uint256",
          "name": "totalProjects",
          "type": "uint256"
        },
        {
          "internalType": "uint256",
          "name": "totalBacking",
          "type": "uint256"
        },
        {
          "internalType": "uint256",
          "name": "totalDonations",
          "type": "uint256"
        }
      ],
      "stateMutability": "view",
      "type": "function"
    },
    {
      "inputs": [
        {
          "internalType": "uint256",
          "name": "id",
          "type": "uint256"
        },
        {
          "internalType": "string",
          "name": "title",
          "type": "string"
        },
        {
          "internalType": "string",
          "name": "description",
          "type": "string"
        },
        {
          "internalType": "string",
          "name": "imageURL",
          "type": "string"
        },
        {
          "internalType": "uint256",
          "name": "expiresAt",
          "type": "uint256"
        }
      ],
      "name": "updateProject",
      "outputs": [
        {
          "internalType": "bool",
          "name": "",
          "type": "bool"
        }
      ],
      "stateMutability": "nonpayable",
      "type": "function"
    }
  ],
  "bytecode": "0x60a060405234801561001057600080fd5b506040516122ae3803806122ae83398101604081905261002f9161003b565b33608052600055610054565b60006020828403121561004d57600080fd5b5051919050565b60805161222a6100846000396000818161077b01528181610887015281816111ae0152611a55015261222a6000f3fe6080604052600436106100e85760003560e01c8063a4b2409e1161008a578063d24cd3ec11610059578063d24cd3ec1461026e578063d80528ae14610284578063dcc60128146102be578063f0f3f2c8146102e057600080fd5b8063a4b2409e146101eb578063b531dcba1461020b578063b69ef8a81461022b578063c9168b721461024157600080fd5b80634cd0cb28116100c65780634cd0cb28146101685780638593054b146101885780639a3fa8c7146101b85780639f39a194146101d857600080fd5b8063056c29ee146100ed57806336fbad26146101225780633e45c8af14610146575b600080fd5b3480156100f957600080fd5b5061010d610108366004611d33565b61030d565b60405190151581526020015b60405180910390f35b34801561012e57600080fd5b5061013860015481565b604051908152602001610119565b34801561015257600080fd5b50610166610161366004611dcd565b610770565b005b34801561017457600080fd5b5061010d610183366004611dcd565b6107be565b34801561019457600080fd5b5061010d6101a3366004611dcd565b60096020526000908152604090205460ff1681565b3480156101c457600080fd5b5061010d6101d3366004611de6565b61096d565b61010d6101e6366004611dcd565b610be4565b3480156101f757600080fd5b5061010d610206366004611dcd565b610ff1565b34801561021757600080fd5b5061010d610226366004611dcd565b6110e8565b34801561023757600080fd5b5061013860025481565b34801561024d57600080fd5b5061026161025c366004611dcd565b6111f5565b6040516101199190611e80565b34801561027a57600080fd5b5061013860005481565b34801561029057600080fd5b506003546004546005546102a392919083565b60408051938452602084019290925290820152606001610119565b3480156102ca57600080fd5b506102d3611297565b6040516101199190612039565b3480156102ec57600080fd5b506103006102fb366004611dcd565b611532565b604051610119919061209b565b60008086511161035c5760405162461bcd60e51b81526020600482015260156024820152745469746c652063616e6e6f7420626520656d70747960581b60448201526064015b60405180910390fd5b60008551116103ad5760405162461bcd60e51b815260206004820152601b60248201527f4465736372697074696f6e2063616e6e6f7420626520656d70747900000000006044820152606401610353565b60008451116103f95760405162461bcd60e51b8152602060048201526018602482015277496d61676555524c2063616e6e6f7420626520656d70747960401b6044820152606401610353565b6000831161043f5760405162461bcd60e51b8152602060048201526013602482015272436f73742063616e6e6f74206265207a65726f60681b6044820152606401610353565b610447611b84565b600180548252336020808401918252604084018a8152606085018a90526080850189905260a085018890524260e0860152610100850187905260068054948501815560005284517ff652222313e28459528d920b65115c16c04f3efc82aaedc97be59f3f377c0d3f600b90950294850190815592517ff652222313e28459528d920b65115c16c04f3efc82aaedc97be59f3f377c0d40850180546001600160a01b0319166001600160a01b039092169190911790555180518594610531937ff652222313e28459528d920b65115c16c04f3efc82aaedc97be59f3f377c0d41909101920190611bf7565b506060820151805161054d916003840191602090910190611bf7565b5060808201518051610569916004840191602090910190611bf7565b5060a0820151600582015560c0820151600682015560e0820151600782015561010082015160088201556101208201516009820155610140820151600a8201805460ff191660018360048111156105c2576105c2611f3c565b021790555050600180546000908152600960209081526040808320805460ff1916851790553383526007825280832080548086018255908452928290208651600b909402019283558582015193830180546001600160a01b0319166001600160a01b0390951694909417909355918401518051859450919261064c92600285019290910190611bf7565b5060608201518051610668916003840191602090910190611bf7565b5060808201518051610684916004840191602090910190611bf7565b5060a0820151600582015560c0820151600682015560e0820151600782015561010082015160088201556101208201516009820155610140820151600a8201805460ff191660018360048111156106dd576106dd611f3c565b021790555050506001600360000160008282546106fa91906120cb565b90915550506001805433916000805160206121d583398151915291906000610721836120e3565b9091555060408051918252606060208301819052600f908301526e141493d29150d50810d49150551151608a1b6080830152429082015260a00160405180910390a25060019695505050505050565b336001600160a01b037f000000000000000000000000000000000000000000000000000000000000000016146107b957604051631236edfb60e31b815260040160405180910390fd5b600055565b600080600683815481106107d4576107d46120fe565b60009182526020909120600a600b90920201015460ff1660048111156107fc576107fc611f3c565b146108445760405162461bcd60e51b8152602060048201526018602482015277141c9bda9958dd081b9bc81b1bdb99d95c881bdc195b995960421b6044820152606401610353565b60068281548110610857576108576120fe565b60009182526020909120600b90910201600101546001600160a01b03163314806108a95750336001600160a01b037f000000000000000000000000000000000000000000000000000000000000000016145b6108c55760405162461bcd60e51b815260040161035390612114565b6003600683815481106108da576108da6120fe565b60009182526020909120600a600b9092020101805460ff1916600183600481111561090757610907611f3c565b021790555061091582611812565b60408051838152606060208201819052600f908201526e141493d29150d50811115311551151608a1b60808201524281830152905133916000805160206121d5833981519152919081900360a00190a2506001919050565b600060068681548110610982576109826120fe565b60009182526020909120600b90910201600101546001600160a01b031633146109bd5760405162461bcd60e51b815260040161035390612114565b6000855111610a065760405162461bcd60e51b81526020600482015260156024820152745469746c652063616e6e6f7420626520656d70747960581b6044820152606401610353565b6000845111610a575760405162461bcd60e51b815260206004820152601b60248201527f4465736372697074696f6e2063616e6e6f7420626520656d70747900000000006044820152606401610353565b6000835111610aa35760405162461bcd60e51b8152602060048201526018602482015277496d61676555524c2063616e6e6f7420626520656d70747960401b6044820152606401610353565b8460068781548110610ab757610ab76120fe565b90600052602060002090600b02016002019080519060200190610adb929190611bf7565b508360068781548110610af057610af06120fe565b90600052602060002090600b02016003019080519060200190610b14929190611bf7565b508260068781548110610b2957610b296120fe565b90600052602060002090600b02016004019080519060200190610b4d929190611bf7565b508160068781548110610b6257610b626120fe565b90600052602060002090600b020160080181905550336001600160a01b03166000805160206121d58339815191528742604051610bd0929190918252606060208301819052600f908301526e141493d29150d50815541110551151608a1b6080830152604082015260a00190565b60405180910390a250600195945050505050565b6000803411610c355760405162461bcd60e51b815260206004820152601f60248201527f4574686572206d7573742062652067726561746572207468616e207a65726f006044820152606401610353565b60008281526009602052604090205460ff16610c875760405162461bcd60e51b8152602060048201526011602482015270141c9bda9958dd081b9bdd08199bdd5b99607a1b6044820152606401610353565b600060068381548110610c9c57610c9c6120fe565b60009182526020909120600a600b90920201015460ff166004811115610cc457610cc4611f3c565b14610d0c5760405162461bcd60e51b8152602060048201526018602482015277141c9bda9958dd081b9bc81b1bdb99d95c881bdc195b995960421b6044820152606401610353565b600160036001016000828254610d2291906120cb565b909155505060058054349190600090610d3c9084906120cb565b925050819055503460068381548110610d5757610d576120fe565b90600052602060002090600b02016006016000828254610d7791906120cb565b92505081905550600160068381548110610d9357610d936120fe565b90600052602060002090600b02016009016000828254610db391906120cb565b9091555050600082815260086020908152604080832081516080808201845233808352348387019081524284870181815260608087018b8152885460018082018b55998d529b8b902097516004909c0290970180546001600160a01b0319166001600160a01b03909c169b909b178b559251968a01969096559451600289015592516003909701805460ff1916971515979097179096558351888152948501829052600e918501919091526d141493d29150d508109050d2d15160921b90840152908201526000805160206121d58339815191529060a00160405180910390a260068281548110610ea657610ea66120fe565b90600052602060002090600b02016005015460068381548110610ecb57610ecb6120fe565b90600052602060002090600b02016006015410610f7657600160068381548110610ef757610ef76120fe565b60009182526020909120600a600b9092020101805460ff19166001836004811115610f2457610f24611f3c565b021790555060068281548110610f3c57610f3c6120fe565b90600052602060002090600b02016006015460026000828254610f5f91906120cb565b90915550610f6e905082611980565b506001919050565b60068281548110610f8957610f896120fe565b90600052602060002090600b0201600801544210610f6e57600260068381548110610fb657610fb66120fe565b60009182526020909120600a600b9092020101805460ff19166001836004811115610fe357610fe3611f3c565b0217905550610f6e82611812565b6000600260068381548110611008576110086120fe565b60009182526020909120600a600b90920201015460ff16600481111561103057611030611f3c565b141580611078575060036006838154811061104d5761104d6120fe565b60009182526020909120600a600b90920201015460ff16600481111561107557611075611f3c565b14155b6110d35760405162461bcd60e51b815260206004820152602660248201527f50726f6a656374206e6f74206d61726b656420617320726576657274206f722060448201526564656c65746560d01b6064820152608401610353565b600260068381548110610fb657610fb66120fe565b60006001600683815481106110ff576110ff6120fe565b60009182526020909120600a600b90920201015460ff16600481111561112757611127611f3c565b1461116b5760405162461bcd60e51b8152602060048201526014602482015273141c9bda9958dd081b9bdd081054141493d5915160621b6044820152606401610353565b6006828154811061117e5761117e6120fe565b60009182526020909120600b90910201600101546001600160a01b03163314806111d05750336001600160a01b037f000000000000000000000000000000000000000000000000000000000000000016145b6111ec5760405162461bcd60e51b815260040161035390612114565b610f6e82611980565b606060086000838152602001908152602001600020805480602002602001604051908101604052809291908181526020016000905b8282101561128c576000848152602090819020604080516080810182526004860290920180546001600160a01b03168352600180820154848601526002820154928401929092526003015460ff1615156060830152908352909201910161122a565b505050509050919050565b60606006805480602002602001604051908101604052809291908181526020016000905b828210156115295760008481526020908190206040805161016081018252600b86029092018054835260018101546001600160a01b0316938301939093526002830180549293929184019161130f90612141565b80601f016020809104026020016040519081016040528092919081815260200182805461133b90612141565b80156113885780601f1061135d57610100808354040283529160200191611388565b820191906000526020600020905b81548152906001019060200180831161136b57829003601f168201915b505050505081526020016003820180546113a190612141565b80601f01602080910402602001604051908101604052809291908181526020018280546113cd90612141565b801561141a5780601f106113ef5761010080835404028352916020019161141a565b820191906000526020600020905b8154815290600101906020018083116113fd57829003601f168201915b5050505050815260200160048201805461143390612141565b80601f016020809104026020016040519081016040528092919081815260200182805461145f90612141565b80156114ac5780601f10611481576101008083540402835291602001916114ac565b820191906000526020600020905b81548152906001019060200180831161148f57829003601f168201915b505050918352505060058201546020820152600682015460408201526007820154606082015260088201546080820152600982015460a0820152600a82015460c09091019060ff16600481111561150557611505611f3c565b600481111561151657611516611f3c565b81525050815260200190600101906112bb565b50505050905090565b61153a611b84565b60008281526009602052604090205460ff1661158c5760405162461bcd60e51b8152602060048201526011602482015270141c9bda9958dd081b9bdd08199bdd5b99607a1b6044820152606401610353565b6006828154811061159f5761159f6120fe565b90600052602060002090600b020160405180610160016040529081600082015481526020016001820160009054906101000a90046001600160a01b03166001600160a01b03166001600160a01b0316815260200160028201805461160290612141565b80601f016020809104026020016040519081016040528092919081815260200182805461162e90612141565b801561167b5780601f106116505761010080835404028352916020019161167b565b820191906000526020600020905b81548152906001019060200180831161165e57829003601f168201915b5050505050815260200160038201805461169490612141565b80601f01602080910402602001604051908101604052809291908181526020018280546116c090612141565b801561170d5780601f106116e25761010080835404028352916020019161170d565b820191906000526020600020905b8154815290600101906020018083116116f057829003601f168201915b5050505050815260200160048201805461172690612141565b80601f016020809104026020016040519081016040528092919081815260200182805461175290612141565b801561179f5780601f106117745761010080835404028352916020019161179f565b820191906000526020600020905b81548152906001019060200180831161178257829003601f168201915b505050918352505060058201546020820152600682015460408201526007820154606082015260088201546080820152600982015460a0820152600a82015460c09091019060ff1660048111156117f8576117f8611f3c565b600481111561180957611809611f3c565b90525092915050565b60005b60008281526008602052604090205481101561197c57600082815260086020526040812080548390811061184b5761184b6120fe565b6000918252602080832060049092029091015485835260089091526040822080546001600160a01b039092169350908490811061188a5761188a6120fe565b906000526020600020906004020160010154905060016008600086815260200190815260200160002084815481106118c4576118c46120fe565b906000526020600020906004020160030160006101000a81548160ff02191690831515021790555042600860008681526020019081526020016000208481548110611911576119116120fe565b9060005260206000209060040201600201819055506119308282611b0b565b600160036001016000828254611946919061217c565b90915550506005805482919060009061196090849061217c565b9250508190555050508080611974906120e3565b915050611815565b5050565b600060068281548110611995576119956120fe565b90600052602060002090600b020160060154905060006064600054836119bb9190612193565b6119c591906121b2565b90506004600684815481106119dc576119dc6120fe565b60009182526020909120600a600b9092020101805460ff19166001836004811115611a0957611a09611f3c565b0217905550611a5060068481548110611a2457611a246120fe565b600091825260209091206001600b9092020101546001600160a01b0316611a4b838561217c565b611b0b565b611a7a7f000000000000000000000000000000000000000000000000000000000000000082611b0b565b60068381548110611a8d57611a8d6120fe565b90600052602060002090600b02016006015460026000828254611ab0919061217c565b9091555050604080518481526060602082018190526010908201526f141493d29150d508141052510813d55560821b60808201524281830152905133916000805160206121d5833981519152919081900360a00190a2505050565b6000826001600160a01b03168260405160006040518083038185875af1925050503d8060008114611b58576040519150601f19603f3d011682016040523d82523d6000602084013e611b5d565b606091505b5050905080611b7f576040516398343ae960e01b815260040160405180910390fd5b505050565b6040518061016001604052806000815260200160006001600160a01b03168152602001606081526020016060815260200160608152602001600081526020016000815260200160008152602001600081526020016000815260200160006004811115611bf257611bf2611f3c565b905290565b828054611c0390612141565b90600052602060002090601f016020900481019282611c255760008555611c6b565b82601f10611c3e57805160ff1916838001178555611c6b565b82800160010185558215611c6b579182015b82811115611c6b578251825591602001919060010190611c50565b50611c77929150611c7b565b5090565b5b80821115611c775760008155600101611c7c565b634e487b7160e01b600052604160045260246000fd5b600082601f830112611cb757600080fd5b813567ffffffffffffffff80821115611cd257611cd2611c90565b604051601f8301601f19908116603f01168101908282118183101715611cfa57611cfa611c90565b81604052838152866020858801011115611d1357600080fd5b836020870160208301376000602085830101528094505050505092915050565b600080600080600060a08688031215611d4b57600080fd5b853567ffffffffffffffff80821115611d6357600080fd5b611d6f89838a01611ca6565b96506020880135915080821115611d8557600080fd5b611d9189838a01611ca6565b95506040880135915080821115611da757600080fd5b50611db488828901611ca6565b9598949750949560608101359550608001359392505050565b600060208284031215611ddf57600080fd5b5035919050565b600080600080600060a08688031215611dfe57600080fd5b85359450602086013567ffffffffffffffff80821115611e1d57600080fd5b611e2989838a01611ca6565b95506040880135915080821115611e3f57600080fd5b611e4b89838a01611ca6565b94506060880135915080821115611e6157600080fd5b50611e6e88828901611ca6565b95989497509295608001359392505050565b602080825282518282018190526000919060409081850190868401855b82811015611ee257815180516001600160a01b031685528681015187860152858101518686015260609081015115159085015260809093019290850190600101611e9d565b5091979650505050505050565b6000815180845260005b81811015611f1557602081850181015186830182015201611ef9565b81811115611f27576000602083870101525b50601f01601f19169290920160200192915050565b634e487b7160e01b600052602160045260246000fd5b60058110611f7057634e487b7160e01b600052602160045260246000fd5b9052565b6000610160825184526020830151611f9760208601826001600160a01b03169052565b506040830151816040860152611faf82860182611eef565b91505060608301518482036060860152611fc98282611eef565b91505060808301518482036080860152611fe38282611eef565b91505060a083015160a085015260c083015160c085015260e083015160e08501526101008084015181860152506101208084015181860152506101408084015161202f82870182611f52565b5090949350505050565b6000602080830181845280855180835260408601915060408160051b870101925083870160005b8281101561208e57603f1988860301845261207c858351611f74565b94509285019290850190600101612060565b5092979650505050505050565b6020815260006120ae6020830184611f74565b9392505050565b634e487b7160e01b600052601160045260246000fd5b600082198211156120de576120de6120b5565b500190565b60006000198214156120f7576120f76120b5565b5060010190565b634e487b7160e01b600052603260045260246000fd5b602080825260139082015272556e617574686f72697a656420456e7469747960681b604082015260600190565b600181811c9082168061215557607f821691505b6020821081141561217657634e487b7160e01b600052602260045260246000fd5b50919050565b60008282101561218e5761218e6120b5565b500390565b60008160001904831182151516156121ad576121ad6120b5565b500290565b6000826121cf57634e487b7160e01b600052601260045260246000fd5b50049056feaee8e5d3bbb2f71a951b5632cee20f7ac487b9f8ab4f66a236f7694b13af7c6aa26469706673582212207c62d72fa91f745da129afbee356fe7a2ff56ea4cf584102056d1207aa9de55c64736f6c634300080b0033",
  "linkReferences": {},
  "deployedLinkReferences": {}
}